:100000002120017E3210011130011A321101863295
:100010001201014001022313031ABEC2460002036B
:10002000022313033A12013D3D321201CAAE003AD7
:1000300010013D321001CA7E003A11013D3211011A
:10004000CA9600C31900D263000203133A12013D9D
:10005000321201CAAE003A11013D321101CA9600B6
:10006000C319007E0203233A12013D321201CAAEC7
:10007000003A10013D321001CA7E00C319001A0275
:1000800013033A12013D321201CAAE003A11013D8A
:10009000321101C27E007E0223033A12013D321268
:0F00A00001CAAE003A10013D321001C29600763F
:00000001FF
