:100000002120017E3210011130011A321101863295
:100010001201014001022313031ABEC2430002036E
:10002000022313033A12013D3D321201CAAB003ADA
:1000300010013D321001CA78003A11013D32110120
:10004000CA9300D25D000203133A12013D3212013D
:10005000CAAB003A11013D321101CA93007E02037E
:10006000233A12013D321201CAAB003A10013D326F
:100070001001CA7800C319001A0213033A12013D95
:10008000321201CAAB003A11013D321101C27800AF
:10009000C3AB007E0223033A12013D321201CAAB08
:0C00A000003A10013D321001C2930076BE
:00000001FF
